:020000007A2A5A
:10000800FF00030E83018316B7000A08B6008A01B1
:100018000B1D15288312C00A0319C10A0B110630DB
:100028008100831636088A00370E8300FF0E7F0E84
:020038000900BD
:04003A0000000800BA
:10003E00083083120313FC002330FD00FD0B25282E
:06004E00FC0B2528080050
:10005400103083120313FD00FD0B2E28000008004E
:1000640083160313C71B3928831287133B28831273
:1000740087178316471B41288312071343288312CB
:1000840007178316C71A4928831287124B2883122D
:1000940087168316471A512883120712532883128E
:1000A40007166E18572807155828071187151D209D
:1000B40087118316C7196128831287136328831253
:1000C4008717831647196928831207136B2883122D
:1000D40007178316C718712883128712732883128F
:1000E4008716831647187928831207127B288312F0
:1000F40007166E187F2807158028071187151D20FD
:0E01040087116E1C87281F2088282A200800DB
:10011200831203136E1083164208C70032206E1436
:020122000800D3
:0E012400033083120313FD00FD0B9628080024
:1001320083160313C201C401C5011030C600043086
:1001420045020318CE28F030831286008030F0007A
:100152007008063E840083164609F000700880008D
:100162001D201D200F3083120605F0007008831633
:10017200C30070080319C8284408C20043080319C1
:10018200C628C30CC313C20ABF280430C500C60D5B
:1001920046100430C407C50AA0284208F00008002F
:0E01A200831603132C088A002B088200080025
:1001B00083120313F801F9011030FC00710DF80DE2
:1001C000F90D7408F8027508031C750FF90203187D
:1001D000F0287408F80775080318750FF90703105D
:0A01E000F00DF10DFC0BDE28080005
:1001EA000729803083160313BA001A29C030BA00CF
:1001FA001A299430BA001A29D430BA001A29803040
:10020A00BA001A29831603133A08013A0319F62881
:10021A003A08023A0319FB283A08033A0319FE2856
:10022A003A08043A0319012904293B03F0003A0861
:10023A00F0077008BA0083126E1470088316C7009C
:10024A0032206E1083163C08C70032206E14080054
:10025A00831603133A08F2007208F100F20A3B0807
:10026A00F000BB0A700884000008F00071088400DE
:10027A007008800071088400000803194529312993
:06028A003A08F000080034
:100290008B168B17831603138112811101108114A1
:0A02A00001110630831281000800EE
:1002AA0099207008BA000F3083120605F00003196E
:0E02BA0060299220582983163A08F0000800A7
:1002C800803083120313F0007008063E8400FF306C
:0402D800800008009A
:1002DC008029803083160313BA009329C030BA00EA
:1002EC0093299430BA009329D430BA0093298030E2
:1002FC00BA009329831603133A08013A03196F299C
:10030C003A08023A031974293A08033A031977296F
:10031C003A08043A03197A297D293B03F0003A087C
:10032C00F0077008BA007008C70032206E108316F0
:10033C00BD013D083C07840000080319AE293D08A7
:10034C003C0784000008C20089208316BD0A9F293F
:06035C0083126E1408007C
:1003620083160313BE0106303E020318BF293E085E
:100372003C07840030308000BE0AB4293E083C07A6
:100382008400800100303B06031DC92900303A0673
:10039200031DCC291F2ABD0180303B06F0008030AE
:1003A2007002031DD62900303A020318E3290130F6
:1003B200BD003A08003CBF003B08031C013EC001DF
:1003C200C002E7293A08BF003B08C0000530BE0062
:1003D20000304006031DEF2900303F060319182A9A
:1003E2003E083C07C1000A30F4000030F5003F0827
:1003F200F0004008F100D8207808F0007908F100F8
:100402003030F00783164108840070088000BE0374
:100412000A30F4000030F5003F08F0004008F10017
:10042200D82070088316BF007108C000E9293D0872
:0E04320003191F2A3C0884002D3080000800AA
:10044000D1208A110A128000840AAB0A0319AC0A6F
:08045000F003031D202A08003F
:1004580083160313871107110712871207138713CF
:1004680083128711071187130713871207121F209A
:100478001F201F208716071687151D2087111F208C
:1004880087151D2087111F2087151D2087111F2004
:10049800071287151D2087111F2087151D2087111A
:1004A8008712871787151D2087111F2087130716A6
:1004B80087151D208711071287151D2087111F20FA
:1004C80087151D208711071687151D2087111F20E6
:1004D800071287151D208711871707178716071614
:0C04E80087151D2087111F206E140800CE
:1004F4006A248316031308108312081064212C2223
:1005040001308316C70032200C308316C700322016
:1005140001308316BA000130BB002230BC006E21CA
:1005240002308316BA000130BB002130BC006E21BA
:10053400EF01552170088312EF00700803199B2AFC
:10054400D32A3130EF00132B3230EF00132B33302A
:10055400EF00132B4130EF00132B3430EF00132B3B
:100564003530EF00132B3630EF00132B4230EF0001
:10057400132B3730EF00132B3830EF00132B3930A7
:10058400EF00132B4330EF00132B2A30EF00132B13
:100594003030EF00132B2330EF00132B4430EF00E7
:1005A400132B6F08013A0319A32A6F08023A03199F
:1005B400A62A6F08033A0319A92A6F08043A0319F3
:1005C400AC2A6F08053A0319AF2A6F08063A0319D3
:1005D400B22A6F08073A0319B52A6F08083A0319B3
:1005E400B82A6F08093A0319BB2A6F080A3A031993
:1005F400BE2A6F080B3A0319C12A6F080C3A031973
:10060400C42A6F080D3A0319C72A6F080E3A031952
:10061400CA2A6F080F3A0319CD2A6F08103A031932
:10062400D02A6F088316C20089206108633E8400C3
:100634006F088000E10A0319E20A0330FB00083066
:10064400FC007730FD00FD0B252BFC0B252BFB0B51
:10065400252B02308316BA00831261088316BB006F
:100664002330BC00F52000306206031D3B2B043010
:100674006106031D0A2C8316B801B90180303906BE
:10068400F00080307002031D492B04303802031837
:10069400602B3808633E84000008F1003808831298
:1006A400600784007108000603195B2B0130ED001C
:1006B400602B8316B80A0319B90A402B83126D08FC
:1006C400013A0319672B0230ED006D08013A031D4E
:1006D400942B02308316BA000130BB00A030BC005A
:1006E4006E211530FB004B30FC00BE30FD00FD0BCD
:1006F400792BFC0B792BFB0B792B00000230831632
:10070400BA000130BB006730BC006E210230831692
:10071400BA000130BB005F30BC006E21E101E20190
:10072400ED010A2C6D08023A031D0A2C02308316CF
:10073400BA000130BB004230BC006E210630FB0021
:100744001330FC00AD30FD00FD0BA62BFC0BA62BDB
:10075400FB0BA62B0000000001308316C7003220DB
:100764004821C001C1018316AD01AE0183120814F2
:1007740001308316BA000130BB004F30BC006E213B
:10078400803083162E06F00080307002031DCC2BBF
:1007940004302D020318EC2B83124108013A031D87
:1007A400D52BF4304006031DEB2BC001C101831689
:1007B400AD0A0319AE0A2D08BA002E08BB00AF30EB
:1007C400BC00B1210230BA000130BB00AF30BC0024
:1007D4006E21C22B83120810AF308316BA00483042
:1007E400BB002D210130C700322001308316BA002E
:1007F4000130BB003130BC006E2102308316BA00D8
:100804000130BB002030BC006E21E101E201ED01AA
:040814009A2A0B2CE5
:1008D400203084004D3083120313F000113083164E
:1008E400AB000430AC002022A03084000630F000BD
:1008F4005E308316AB000430AC0020226D308400DF
:100904000130F00003308316AB000030AC0020222D
:10091400A63084000530F00064308316AB00043048
:06092400AC0020220800D7
:020006000034C4
:020822000034A0
:0208240000349E
:1008260045346E3474346534723420345034613453
:0E0836007334733477346F34723464340034A6
:1008440045346E3474346534723420345034613435
:0E0854007334733477346F3472346434003488
:04086200003400342A
:0C08660052346934673468347434003450
:0E0872003034303430343034303430340034EC
:100880004D346F3474346F34723420344F346E34DA
:100890002034533469346E34633465343A3400346C
:0208A000003422
:0208A200A6347A
:0408A40000340034E8
:0808A800003400340034003478
:0C08B00020342034203420342034003464
:0C08BC00573472346F346E3467340034EB
:0A08C8003034333430343834003457
:02400E004A2F37
:00000001FF
