:02000000B8291D
:10000800FF00030E8301DD000A08DB008A018B1C58
:1000180010280130AF008B100B1D1828B00A0319E7
:10002800B10A0B11063081005B088A005D0E83005F
:06003800FF0E7F0E09001F
:0A003E0000000000000000000800B0
:10004800423083120313FD00FD0B2828000008002E
:100058001D3083120313FC009130FD00FD0B322884
:06006800FC0B3228080029
:10006E0083120313E71B3D2887113E288715671B54
:10007E004228071143280715E71A472887104828F2
:10008E008714671A4C2807104D2807145C1851283E
:10009E0007165228071287161F208712E7195928AC
:1000AE0087115A28871567195E2807115F280715CB
:1000BE00E7186328871064288714671868280710C4
:1000CE00692807145C186D2807166E280712871604
:1000DE001F2087125C1C75282C20762824200800EF
:1000EE0083120313F801F9011030FC00710DF80DA5
:1000FE00F90D7408F8027508031C750FF902031840
:10010E008F287408F80775080318750FF907031080
:0A011E00F00DF10DFC0B7D28080028
:0E012800831203135A088A0059088200080047
:10013600831203135C106608E70037205C1408007E
:1001460083120313E201063062020318B128620823
:100156006007840030308000E20AA6286208600743
:100166008400800100305F06031DBB2800305E0658
:10017600031DBE280F29E10180305F06F0008030A4
:100186007002031DC82800305E020318D52801300E
:10019600E1005E08003CE3005F08031C013EE40149
:1001A600E402D9285E08E3005F08E4000530E200B7
:1001B60000306406031DE128003063060319082990
:1001C60062086007E5000A30F4000030F5006308B5
:1001D600F0006408F10077207808F0007908F10053
:1001E6003030F0076508840070088000E2030A30AA
:1001F600F4000030F5006308F0006408F100772091
:100206007008E3007108E400DB28610803190F2970
:0A021600600884002D30800008000D
:100220002229803083120313DE003529C030DE001E
:1002300035299430DE003529D430DE003529803070
:10024000DE003529831203135E08013A03191129D0
:100250005E08023A031916295E08033A03191929A0
:100260005E08043A03191C291F295F03F0005E0889
:10027000F0077008DE007008E70037205C10E1012D
:10028000610860078400000803194E2961086007AF
:1002900084000008E6009B20E10A40295C14080065
:1002A0008B168B170B168316031381128111011005
:0C02B00081140111063083128100080047
:1002BC008316031387120712071087100711871173
:1002CC0083128712071287110711871007102C2031
:1002DC002C202C208714071487161F2087122C2003
:1002EC0087161F2087122C2087161F2087122C2080
:1002FC00071087161F2087122C2087161F208712A5
:10030C008710871587161F2087122C20871107143A
:10031C0087161F208712071087161F2087122C2084
:10032C0087161F208712071487161F2087122C2070
:10033C00071087161F2087128715071587140714B7
:0C034C0087161F2087122C205C1408006C
:1003580094208A110A128000840AD90A0319DA0A39
:08036800F003031DAC2908009D
:100370004A225E210C30E70037200130DE000130D8
:10038000DF002030E00010215021831608100614F1
:10039000831208102F08003A031DEB2908103108BA
:1003A000013A031DD529F4303006031DEA29B001B6
:1003B000B101D70A0319D80A5708DE005808DF0030
:1003C0005030E000A3200230DE000130DF0050306A
:1003D000E0001021132A2F08013A031D132A0814E4
:1003E000D701D8010130DE000130DF003230E000FB
:1003F00010215708DE005808DF005030E000A3202D
:100400000230DE000130DF005030E000102106181D
:10041000132AAF01B001B1010130DE000130DF006D
:0A0420004130E0001021CA29142A1F
:1004940020308400303083120313F0001A30D90066
:0804A4000230DA00AC2108006F
:1004340045346C34613470346534733465346434F5
:0E0444002034543469346D3465343A34003455
:02045200003474
:04045400003400343C
:10045800463461346E3420344934533420344F34B4
:0E0468006E343A3420342034203420340034F2
:1004760045346C34613470346534733465346434B3
:0E0486002034543469346D3465343A34003413
:02400E004A2F37
:00000001FF
