:0200000068286E
:10000800FF00030E8301AF000A08B0008A017008E0
:10001800A3007108A2007208A1007308A0008B1C3D
:100028001C280130A4008B10A901AA01AB01AC0166
:100038000B1D38282508F0002608F1002708F200D3
:100048002808F300F00A0319F10A0319F20A031940
:10005800F30A7008A5007108A6007208A7007308C3
:10006800A8000B11063081002308F0002208F100D7
:100078002108F2002008F30030088A002F0E8300C0
:06008800FF0E7F0E0900CF
:0E008E00831203132E088A002D08820008003A
:10009C0047208A110A128000840AAD0A0319AE0A9D
:0800AC00F003031D4E280800BB
:1000B4008B168B170B1683160313811281110110F3
:0C00C40081140111063083128100080035
:1000D00083120313A401A501A601A701A8015A20B8
:1000E000831608108810831288102408003A031D14
:1000F000A8280030F0002806031D8828700827066D
:10010000031D882801302606031D88282508F43A97
:10011000031DA728A501A601A701A8012908F00031
:100120002A08F1002B08F2002C08F300F00A03194A
:10013000F10A0319F20A0319F30A7008A9007108F9
:10014000AA007208AB007308AC0008140810CC2891
:100150002408013A031DCC28081408108814003024
:10016000F0002C06031DBE2870082B06031DBE28B8
:1001700070082A06031DBE2829080F3A031DCC2843
:10018000A401A901AA01AB01AC01A501A601A70127
:0C019000A8018814081088107528CD28DC
:02400E004A2F37
:00000001FF
